:020000040000FA
:1000000088000020B1020000B9020000BB0200001D
:1000100000000000000000000000000000000000E0
:10002000000000000000000000000000BD02000011
:100030000000000000000000BF020000BD12000030
:10004000C3020000C3020000C3020000C30200009C
:10005000C3020000C3020000C3020000C30200008C
:10006000C3020000C3020000C3020000C30200007C
:10007000C3020000C3020000C3020000E11200003E
:10008000C3020000C3020000C3020000C30200005C
:10009000C3020000C3020000C3020000C30200004C
:1000A000C3020000C3020000C3020000C30200003C
:1000B000C3020000C3020000C3020000C30200002C
:1000C00000F002F800F046F80CA030C808382418F8
:1000D0002D18671EA246AB4654465D46AC4201D180
:1000E00000F038F87E460F3EB6460FCC012633426C
:1000F00000D0FB1A3343A246AB46184758210000F4
:1001000078210000103A02D378C878C1FAD8520793
:1001100001D330C830C101D504680C6070470000BD
:100120000023002400250026103A01D378C1FBD813
:10013000520700D330C100D50B60704710B5642959
:1001400002D101F019FB10BD002010BD1FB51FBD6D
:1001500010B510BD01F000FE1146FFF7F7FF01F0EA
:10016000E3F801F018FE03B4FFF7F2FF03BC01F05F
:100170006FFE000070B505460C46164602E00FCC37
:100180000FC5103E102EFAD2082E02D303CC03C5A1
:10019000083E042E07D301CC01C5361F03E02178A9
:1001A0002970641C6D1C761EF9D270BDF0B501205B
:1001B000C106334A53680B435360810213680B43F3
:1001C000136007221102224B1C688C431C602149DA
:1001D0000B461C3B51241C600C46183C0425256032
:1001E0000A600E68802737430F600E683606FCD41D
:1001F0000E68760627D4886A4E6A30180E6A80190F
:10020000CE6980198E6980194E6980190E6980192E
:1002100040080126F603304380B28860084624383F
:100220001F270760206828432060152018600020E1
:1002300008600A600A68082313430B6006490E60D1
:1002400006490E60F0BD0A68402313430B60F0BD01
:100250002CA0044024B0034080E200E000E100E074
:100260000120C107064A53680B435360800211689E
:100270000143116003480178A0220A4302707047CD
:100280003880044021F00340010B01D00120704769
:1002900005490870000A48700448017810220A4392
:1002A000027000207047C04600F0034021F0034078
:1002B0000748804707480047FEE7FEE7FEE7FEE7FE
:1002C000FEE7FEE704480549034A054B7047000076
:1002D000E5020000C100000088FDFF1F880000202B
:1002E00088FDFF1F0E4800210160012000040D4A17
:1002F00010600D48C21E06231370821E1170017813
:100300001F220A4020320270084980220A70C178F8
:10031000C906FCD5C1780907890FFBD17047C046D3
:1003200000810440448004400340064000500640E1
:1003300080B527490B780120C0030A783F2B11D8DC
:10034000520703D40A789206520FD040C97849095F
:100350007944097949008F4403171B1F23282D3046
:10036000052116E0C0231A40402A08D14A78D20756
:1003700025D0087A0007410F1648C8401FE00978C9
:10038000194080291BD080BD05210902484316E091
:100390000F21C901484312E00521490248430EE0FC
:1003A0000521C9015C31484309E005210902B83142
:1003B000484304E00949484301E0074948430849E4
:1003C0000968090F491C01F049FD0649086080BD14
:1003D0000040064000093D00710B00009508000038
:1003E0004480044040FCFF1FD2B210B513029A189B
:1003F00013049A1801F00DFB10BD704700000000B7
:10040000FFFFFFFFFFFFFFFFFFFFFFFFFEFFFFFFFD
:1004100010B50F490A68402002430A600122930286
:100420004C681C434C6051020A4A13680B4313602A
:1004300053680B43536008494A787F2313404B703D
:100440000A7802430A700878192202430A7010BD24
:10045000348004400CA0044001600640B0B51E4941
:1004600000230B701D4A14788025254315701478DD
:10047000102525431570147820252543157040005C
:10048000907017485478A40703D501241457002C02
:1004900004D49CB2844201D25B1CF3E79BB2401EA1
:1004A00080B2834203D90878012303430B7050784C
:1004B000C00703D00878022303430B70507802234F
:1004C000034353701078DF230340137010787F23A9
:1004D000034013700878B0BD21FDFF1F0260064085
:1004E000102700000248017880220A4302707047FA
:1004F000026006400248017810220A4302707047E9
:10050000026006400248017820220A4302707047C8
:1005100002600640014908707047C046046006400A
:1005200000221249124803789B0703D50023C356C3
:10053000002B04D493B28B4201D2521CF3E792B247
:10054000491E89B28A4204D90A490A780123134311
:100550000B700178C90704D006490A7802231343B7
:100560000B70017802220A430270704710270000C6
:100570000360064021FDFF1F02480178DF220A4088
:100580000270704702600640024801787F220A40EC
:10059000027070470260064070B52D4A0024147046
:1005A0002C4B1D7880262E431E701D7810262E435E
:1005B0001E701D7820262E431E704000987026481D
:1005C0005D78AD0703D501255D57002D04D4A5B294
:1005D000854201D2641CF3E7A5B2441EA4B2A54231
:1005E00003D9157801262E4316705D78ED0703D0E8
:1005F000157802262E4316705E7802252E435E7013
:10060000997000215E78B60703D501269E57002E0B
:1006100004D48EB2864201D2491CF3E788B2A042CC
:1006200003D910780121014311705878C00702D016
:100630001078284310705878284358701878DF21B4
:100640000140197018787F2101401970107870BD31
:1006500021FDFF1F0260064010270000F0B5344A5C
:1006600000241470334B1D7880262E431E701D7895
:1006700010262E431E701D7820262E431E7040002B
:10068000401C98702C485D78AD0703D501255D5757
:10069000002D04D4A5B2854201D2641CF3E7A5B2B3
:1006A000441EA4B2A54203D9157801262E43167024
:1006B0005D78ED0703D0157802262E4316705E781C
:1006C00002252E435E701E78EF2737401F701E787C
:1006D000082737431F709E78184F3E7000265F78BA
:1006E000BF0703D50127DF57002F04D4B7B28742D5
:1006F00001D2761CF3E7B0B2A04203D910780124EE
:10070000044314705878C00702D010782843107042
:100710005878284358701878DF2404401C70987863
:10072000087018787F21014019701078F0BDC0461C
:1007300021FDFF1F026006401027000020FDFF1F63
:1007400002480178EF220A400270704702600640BA
:100750000248017808220A4302707047026006408E
:10076000014800787047C04604600640F0B581B08B
:1007700000923E4A002616703D4D6C1E277880235D
:100780003B432370237810271F43277023782027AB
:100790001F4327704000687036482B789B0703D5AD
:1007A0000023EB56002B04D4B3B2834201D2761C53
:1007B000F3E7B3B2461EB6B2B34203D913780127AA
:1007C0001F4317702B78DB0703D0137802271F43D2
:1007D00017702B7802273B432B70697000212B7810
:1007E0009B0703D50023EB56002B04D48BB2834226
:1007F00001D2491CF3E789B2B14203D91178012330
:100800000B4313702978C90702D01178394311704E
:100810002978394329700099697000212B789B074A
:1008200003D50023EB56002B04D48BB2834201D2B4
:10083000491CF3E788B2B04203D910780121014383
:1008400011702878C00702D01078384310702878CB
:10085000384328702078DF210140217020787F21E3
:1008600001402170107801B0F0BDC04621FDFF1F8E
:100870000360064010270000F0B584B001925D4E81
:10088000002737705C4D6C1E227880231343237041
:100890002A78022302931A432A70227810231343E2
:1008A0002370227820231343237040000090687047
:1008B00052482A78920703D50022AA56002A04D467
:1008C000BAB2824201D27F1CF3E7BAB2471EBBB272
:1008D00003939A4203D932780127174337702A7855
:1008E000D207029B02D032781A4332702A781A4318
:1008F0002A70697000212A78920703D50022AA562F
:10090000002A04D48AB2824201D2491CF3E789B298
:10091000039A914203D9317801220A43327029782F
:10092000C90702D0317819433170297819432970E9
:10093000A91E0F7800220A702678042333432D4E17
:1009400023700F70029F0121009B0B436B702B786B
:100950009B0703D50023EB56002B04D493B28342AC
:1009600001D2521CF3E792B2039B9A4202D9327829
:100970000A4332702A78D20702D032783A43327072
:100980002A783A432A702278EF2313402370227882
:100990000823134323706A78194B1A7000222B78AE
:1009A0009B0703D50023EB56002B04D493B283425C
:1009B00001D2521CF3E790B2039A904202D93078E8
:1009C000084330702878C00702D030783843307040
:1009D0002878384328702078DF210140217068781A
:1009E0000199087020787F2101402170307804B08F
:1009F000F0BDC04621FDFF1F036006401027000028
:100A000020FDFF1F0248017802220A43027070474E
:100A100003600640044801780022027042780423F3
:100A2000134343700170704701600640F0B585B014
:100A3000029301920C46954900220A70944E771E4B
:100A4000397880230B433B70317802230493194398
:100A50003170397810230B433B70397820230B43D6
:100A60003B704000009070708A4833789B0703D534
:100A70000023F356002B04D493B2834201D2521CBC
:100A8000F3E792B2431E99B203918A4204D97F4997
:100A90000A78012313430B703278D20704D07B49C4
:100AA0000A78049B1A430A70327804990A43327018
:100AB0007470002233789B0703D50023F356002B74
:100AC00004D493B2834201D2521CF3E792B2039949
:100AD0008A4204D96D490A78012313430B70327896
:100AE000D20704D069490A78049B1A430A70327805
:100AF00004990A433270B31E1C7800221A703D78A4
:100B00000421294339701C70012500992943717013
:100B10003178890703D500217156002904D491B298
:100B2000814201D2521CF3E791B2039A914204D957
:100B3000564B197801220A431A703178C90704D03C
:100B4000524A1178049B194311703178049A114369
:100B500031703978EF220A403A703978F7220A402A
:100B60003A7071784C4A11700021019A032A0C46A0
:100B700033D30097D21E019200252C460AE0347828
:100B8000049B1C4334707478029B9C54541C019B3E
:100B90009A421FD022462C463778BF0703D500273C
:100BA000F757002F04D4A7B2874201D2641CF3E7A1
:100BB000A4B2039B9C4204D9344B1C7801272743E1
:100BC0001F703478E407DAD0304B1C78049F3C4324
:100BD0001C70D4E7921CD5B2009F3A7808231343C7
:100BE0003B703278920703D50022B256002A04D413
:100BF0008AB2824201D2491CF3E789B2039A914238
:100C000004D9224B197801220A431A703178C90796
:100C100004D01E4A1178049B194311703178049A4C
:100C2000114331707178029A115500213278920780
:100C300003D50022B256002A04D48AB2824201D2DD
:100C4000491CF3E788B20399884204D90F4A107807
:100C50000121014311703078C00704D00B49087896
:100C6000049A10430870307804990843307038783B
:100C7000DF210140397070780299485538787F211A
:100C8000014039700148007805B0F0BD21FDFF1F1B
:100C9000036006401027000020FDFF1F0248017876
:100CA000F7220A40027070470260064010B5FFF755
:100CB000AFFB272000242146FFF76EFC800701D4FC
:100CC000144804703F200021FFF766FC800702D41F
:100CD000104801210170104800BF401EFCD1332094
:100CE0000024214600F030F83220214600F02CF894
:100CF0002820214600F028F80820214600F024F89A
:100D00000120214600F020F80C20214600F01CF8BC
:100D100010BDC0462CFDFF1FA068060010B527209F
:100D200000242146FFF738FC800701D405480470F1
:100D30003F200021FFF730FC800702D40148012149
:100D4000017010BD2CFDFF1FF0B581B00C46491E8F
:100D50008C41F021009001400F1926480078411E77
:100D60008841C0003818011D234800783F262725F8
:100D70000028304600D12846FFF70EFC1D480078B9
:100D8000411E8841C000C1191B480078002800D1CD
:100D90002E463046FFF700FC184F384600BF401E75
:100DA000FCD1154800783F2627250028304600D181
:100DB0002846104909784A1E9141C900009A12013B
:100DC00014196118091DC9B2FFF7E6FB0A4800783B
:100DD000002800D12E4607480078411E8841C000F7
:100DE0000019C1B23046FFF7D7FB00BF7F1EFCD110
:100DF00001B0F0BD48FCFF1F2CFDFF1F204E00007E
:100E000080B50D200021FFF79FFF80BD80B50C202D
:100E10000021FFF799FF80BD80B50E200021FFF76C
:100E200093FF80BD80B54A1E91418901272800D3D8
:100E3000272008438022024300211046FFF784FF49
:100E400080BD80B501200021FFF77EFF80BDB0B5D9
:100E500004460078002809D00025C0B20121FFF720
:100E600073FF6D1CE8B2205C0028F6D1B0BDC0460F
:100E7000F0B583B0002807D004466F46002808D498
:100E80000026012C0DDA15E068463021018001268C
:100E900023E068462D210170471C64420126012C85
:100EA00008DB25460A21284600F0FAFF7F1C092DA1
:100EB0000546F7DC00203870012C0EDB7F1E0A256A
:100EC0002046294600F0ECFF4543611B3031397064
:100ED0007F1E761C092C0446F1DC68460078002849
:100EE0000AD00024C0B20121FFF72EFF641CE0B23B
:100EF0006946085C0028F5D1F0B204280AD8202001
:100F0000012405A5C0B20121FFF71EFF285D641C66
:100F1000072CF7D103B0F0BD2020202020200000B6
:100F2000F0B581B00D46002806D00446002809D44B
:100F30000027012C0DDA15E00020687030202870A1
:100F4000012722E02D2028706D1C64420127012C0E
:100F500008DB26460A21304600F0A2FF6D1C092E50
:100F60000646F7DC00202870012C0EDB6E1E0A25D9
:100F70002046294600F094FF4543611B3031317013
:100F8000761E7F1C092C0446F1DCF8B201B0F0BDDE
:100F900080B50849087008490978002901D127223D
:100FA00000E03F22411E8841C1001046FFF7F4FADD
:100FB00080BDC04648FCFF1F2CFDFF1F80B50849BF
:100FC0000978002901D1272200E03F22054909784C
:100FD0004B1E9941C90001431046FFF7DDFA80BD61
:100FE0002CFDFF1F48FCFF1FF0B581B04A1E914148
:100FF0000001451812480078411E8841C000281899
:10100000001DC1B20F4E30783F242727002820460C
:1010100000D13846FFF7C0FA09480078411E8841E0
:10102000C0004019C1B23078002800D13C462046AB
:10103000FFF7B2FA044800BF401EFCD101B0F0BD7A
:1010400048FCFF1F2CFDFF1F204E0000F0B585B0AF
:101050000190304800783F2527210291002828463A
:1010600000D102982C490C78002C01D0FA2100E024
:10107000F2210091FFF790FA2648007800282846D0
:1010800000D10298002C01D0052100E00D21CE43B3
:10109000311DCFB23946FFF77FFA1E48007800288D
:1010A000284600D1029804AC2146FFF7D7FA194828
:1010B00000780028284600D102980099FFF76CFAC2
:1010C000144800780028284600D102983946FFF7D6
:1010D00063FA104800780028284600D1029803AF30
:1010E0003946FFF7BBFA0B480078002800D1029D73
:1010F000F820064028463146FFF74EFA2178F020C6
:1011000008403A7812091018019A1070802008409F
:1011100005B0F0BD2CFDFF1F48FCFF1FB0B582B02D
:10112000402000242146FFF70FFE3A4D01A8FFF7AB
:101130008DFF0028FAD1285D0121FFF705FE641C10
:10114000082CF3D10024344D01A8FFF77FFF0028BD
:10115000FAD1285D0121FFF7F7FD641C082CF3D1BB
:1011600000242E4D01A8FFF771FF0028FAD1285D59
:101170000121FFF7E9FD641C082CF3D10024284D60
:1011800001A8FFF763FF0028FAD1285D0121FFF7CE
:10119000DBFD641C082CF3D10024224D01A8FFF7CD
:1011A00055FF0028FAD1285D0121FFF7CDFD641C11
:1011B000082CF3D100241C4D01A8FFF747FF00289D
:1011C000FAD1285D0121FFF7BFFD641C082CF3D183
:1011D0000024164D01A8FFF739FF0028FAD1285D39
:1011E0000121FFF7B1FD641C082CF3D10024104D40
:1011F00001A8FFF72BFF0028FAD1285D0121FFF796
:10120000A3FD641C082CF3D180200021FFF79CFD76
:1012100002B0B0BD00FCFF1F08FCFF1F10FCFF1F49
:1012200018FCFF1F20FCFF1F28FCFF1F30FCFF1FC6
:1012300038FCFF1F70B50446002104E0002A0D466B
:1012400010463AD023E0C8B2225C2F2AF6D1031907
:101250005B782F2B22D1851C605D00281ED0E8B260
:10126000235C613B192B19D80020C0467B441B79B5
:101270005B009F440C13111316131313131313184D
:10128000131A1C1313131E1313131313132001210A
:10129000FFF75AFD691CD6E70120F8E70D46104616
:1012A000F5E70220F3E70320F1E70420EFE705204C
:1012B000EDE70620EBE70720E9E770BD0648017877
:1012C000491C0170C9B20A2904D1044901220A70DB
:1012D000002101707047C0462DFDFF1F2EFDFF1F2E
:1012E00010B50C4804680C4804800C4801780029AB
:1012F0000BD101210170A0B200F050FC014608485A
:10130000006800F027FF07490860A0B2FEF7BCFFA5
:1013100010BDC04610B0034044FDFF1F4CFDFF1F31
:1013200044FCFF1F48FDFF1F98B006A8202404744A
:10133000CE480990089007900690FFF7B7FC01206F
:10134000FFF726FEFEF732FF002800D0FEE7FEF78B
:1013500087FFC74848210160C6480068642100F043
:101360007DFD401E010E0DD1C349C44A5060C448E2
:1013700003680B4003218907591801600020906021
:101380000720106001940124002120460291FFF7FC
:1013900049FDBCA0FFF75BFD204600942146FFF706
:1013A00041FDBCA0FFF753FDBE4800BF401EFCD16D
:1013B000FFF747FDBD49029E0CE00020CE490860C2
:1013C00048608860C86008613221C24800F032FB82
:1013D000B649039EB6480078002829D0087800282E
:1013E00026D00396B348006800F082FB05460F46FE
:1013F000B14C2246B14E334600F036FE00281BD0D9
:10140000284639462246334600F023FE0028019C38
:10141000AF4E48D1AB480068002844D0A84A1168B4
:10142000491C1160811E09291BD22E20A94F23E0DF
:10143000029F002FCED0D8E00020A1490860A14C27
:101440002168491C21600121FFF7ECFC226806ADF0
:1014500028469DA100F054F92846FFF7F8FC019CAE
:1014600021E001460B39092902D22D20994F03E0D2
:1014700015282046974F03D331687854481C3060B4
:101480003078401DC0B201252946FFF7CBFC06A8E5
:10149000002141703168C919491E09780170FFF7B0
:1014A000D6FC884805608648006800220B282CD3AB
:1014B00005920025874E884F02E06D1C192D5FD0E4
:1014C000A8003958304600F0B7FA002821D03088FB
:1014D00020282BD00622304680A100F01FFA0028D9
:1014E0004CD0182DE9D13221304600F0A3FA00206B
:1014F0000121FFF797FC7BA0FFF7A9FC6A4800BF1A
:10150000401EFCD1FFF79DFCD7E71746039E6749B5
:1015100065E0784C2068413577490D54401C2060C7
:101520003221304600F086FA00272BE03221304687
:1015300000F080FA6F4801686F4D6C54039E8C195F
:10154000012911DB0BA8731C9C42224600DC1A46C1
:101550008019F343D218491E8A4200D30A46521C0E
:10156000294600F008FA634800272F606F60AF60DB
:10157000EF602F610760661C044604E0009F00E0F6
:1015800000275C4C039E00254D48056050480560CF
:101590004C480560FFF755FC206801281BDB2068DC
:1015A00001281ADB049703962C46534F661CF0B2B1
:1015B0002946FFF737FC06A84570395D0170FFF733
:1015C00046FC4C48006886423446EFDB3749039EB0
:1015D000059A049F03E0FFF734FC3449059A0A702A
:1015E00033480270002F00D1F4E60BA88019314671
:1015F0000E318E42324600DC0A46911B491C2022E5
:10160000FEF7F2FE0396022E00DAD6E60398471E96
:1016100000240BAD264606E0FFF713FC6D1C761C7C
:10162000BE4200D1C9E60595049625463E4606AF62
:101630007C700598405D3870E8B22146FFF7F2FBF8
:1016400038463746FFF703FC6D1CAE42EED1059DD0
:10165000049E002E144804D0284800BF401EFCD130
:10166000DAE700BF401EFCD1D6E7C046202020208C
:1016700000B0034040FCFF1FFFFFFF0010E000E050
:1016800020ED00E044656B6F646572204D6F7273EE
:10169000276100004164616D204379706C696E734D
:1016A0006B69000040787D01809698004CFDFF1F1B
:1016B0002EFDFF1F48FDFF1F9A9999999999E93FBF
:1016C00018FDFF1F1CFDFF1F2530326400000000C5
:1016D00024FDFF1F50FDFF1F4CFCFF1F2E2E2E2E42
:1016E0002E0000002057726F6E67206C6574746561
:1016F0007221000028FDFF1F30FDFF1F404B4C00F2
:101700000FB41CB5074B06AA7B44694600900598A8
:1017100000F0A5FA0020694600F0B4FA1CBC08BC31
:1017200004B018477905000070B504468569006863
:10173000C10601D5302600E02026C00707D070BDC5
:1017400062683046A1689047206A401C20626D1E86
:10175000F6D570BD70B5044685690078C00707D11D
:1017600070BD6268A16820209047206A401C2062FA
:101770006D1EF6D570BD0000F7B5002575291068FF
:10178000009914A611D0C046C046002802DA404293
:1017900011A608E0009909688A0701D50FA602E0A2
:1017A000490704D50EA6012501E0C046C046009FAA
:1017B0000024243704E000F06AFA30313955641C03
:1017C0000028F8D12B4632462146009800F0E9F96E
:1017D000FEBD0000000000002D0000002B000000F6
:1017E00020000000F3B50446002081B020622046AE
:1017F000E168884700287DD0252802D06268A1686A
:1018000083E0454F00257F442046E1688847202833
:10181000064608DB312E06D2B81920380078002899
:1018200001D00543F0E7A80701D504208543002037
:10183000E0610746A0612A2E0AD0304600F01FFC66
:10184000002827D0B8000019303E0090866119E0CA
:101850000298BA00121902C8916102902046E1680C
:101860008847012F064617D1E06900281FDA20209B
:1018700085431CE000980A2180694843009980193B
:10188000303888612046E1688847064600F0F7FB5B
:101890000028EFD1012F0AD02E2E08D12046E16872
:1018A00088470646202005437F1C022FC3DBA06922
:1018B000002803DA4042A06101200543E80701D077
:1018C00010208543002E24D030464138192803D8F3
:1018D0000120C00205432036204625603146029A89
:1018E0001546FEF72BFC00280CD0012807D0ED1D73
:1018F000E80800E00DE0C0000830029077E72D1DF9
:10190000029574E762683046A1689047206A401CDF
:101910006CE7206AFEBD0000FA090000034610B51E
:101920000B439B070FD1042A0DD308C810C9121FFF
:10193000A342F8D018BA21BA884201D9012010BDBB
:101940000020C04310BD002A03D0D30703D0521C8F
:1019500007E0002010BD03780C78401C491C1B1BBD
:1019600007D103780C78401C491C1B1B01D1921E27
:10197000F1D1184610BDF8B5042A2CD3830712D034
:101980000B78491C0370401C521E83070BD00B7848
:10199000491C0370401C521E830704D00B78491C5D
:1019A0000370401C521E8B079B0F05D0C91ADF0025
:1019B0002023DE1B08C90AE0FEF7DCFBF8BD1D464C
:1019C00008C9FD401C46B4402C4310C0121F042A15
:1019D000F5D2F308C91A521EF0D40B78491C0370D3
:1019E000401C521EEAD40B78491C0370401C012A8B
:1019F000E4D409780170F8BD01E004C0091F04298E
:101A0000FBD28B0701D50280801CC90700D0027071
:101A1000704700290BD0C30702D00270401C491E3A
:101A2000022904D3830702D50280801C891EE3E7C4
:101A30000022EEE70022DFE782078B079A423FD1C0
:101A400070B5920F0AD0032402780B78401C491C11
:101A5000002A33D09A4231D12042F5D1214EF401EF
:101A600004C808C9951B9543254018D19A420FD147
:101A700004C808C9951B9543254010D19A4207D147
:101A800004C808C9951B9543254008D19A42E7D060
:101A900012BA1BBA01209A4200D2404270BD12BA5B
:101AA0001BBA2DBA18241000E0401900E140401A7A
:101AB00005D12E00E64002D1083CF4D1D01A70BD09
:101AC00002780B78401C491C002A09D09A4207D1A1
:101AD00002780B78401C491C002A01D09A42EFD0B2
:101AE000D01A70470101010170477047704700002C
:101AF0000121C9050123411842001B06D3185B0EC2
:101B00000AD0C1100722D206891840075242D1429A
:101B100001D5520089187047090208D50146002AEC
:101B200003D0C10FC907002070471046704742021A
:101B300002D0002002497047072109050143F4E75C
:101B40000000F87F1F22030C02D10F2200041CD0DA
:101B5000030E01D10002083A030F01D10001121F48
:101B6000830F01D18000921E002801DB4000521E2D
:101B7000D2055118021251181922904004D3491C61
:101B8000002801D14908490008467047C10FC9071C
:101B900000D04042012292071143D3E70121890777
:101BA000D0E7FFB504460D4681B02430009021688F
:101BB000880604D51022E0699143216000E00120ED
:101BC000A84201DD471B00E000270498A1697A19AB
:101BD0001018081AA0612078C00602D42046FFF72A
:101BE000A3FD002608E003986268A168805D904725
:101BF000206A401C761C206204988642F3DB207821
:101C0000C0060AD52046FFF78FFD06E06268A1688E
:101C100030209047206A401C206238467F1E0028F2
:101C2000F4DC07E000986268A168405D9047206A94
:101C3000401C206228466D1E0028F3DC2046FFF77A
:101C400089FD2078000602D5022005B0F0BD0120F4
:101C5000FBE7000001694A1C02610878704700B583
:101C60008FB00291002105910549019379440391B8
:101C7000114604906846FFF7B5FD0FB000BD0000A7
:101C8000E5FFFFFF0A681070521C0A6070470146AA
:101C90008008081A02091018020A1018020C1018FD
:101CA000C008820012185200891A01E0401C0A394B
:101CB0000A29FBD270470000F8B5264C4E00069D5D
:101CC000A6420AD8A64201D1002806D15E00A6424B
:101CD00003D8A6420AD1002A08D00D2424042542A4
:101CE00033D02946002000F05EF8F8BD0C461C43B6
:101CF00011D4994207D0C81A02D3EFF30080F8BD7F
:101D0000EFF30080F8BD801A02D3EFF30080F8BD36
:101D1000EFF30080F8BD09242407E5008B4207D0CB
:101D2000581A02D3EFF3008006E0EFF3008007E0DB
:101D3000101A03D3EFF30080A04303E0EFF3008019
:101D4000A043284380F30088F8BD009500F042F8D6
:101D5000F8BD00000000E0FF754600F045F8AE4613
:101D6000050069465346C008C000854618B020B536
:101D7000FEF7A8FA60BCB64600260027C0C5C0C55D
:101D8000C0C5C0C5C0C5C0C5C0C5C0C5403D490867
:101D900049008D46704710B50446C046C0462046EF
:101DA000FEF7E1F910BDC80212D54803400F002824
:101DB00004D0C803C043012188407047EFF300807E
:101DC0000001000903210907084380F300887047D8
:101DD0000020704710B500200249029A00F008F870
:101DE00010BD00000000F87F00487047B8FCFF1FDE
:101DF00010B50C461107090F092904D00A290AD089
:101E000008290CD104E011460820FFF7CCFF06E0BA
:101E1000510606D501E0510601D50120C007214633
:101E200010BDD10607D501010909CC084907000EEC
:101E30000006044309E0410F20024907000A01435C
:101E4000200E00061D22D14101430846E7E70000AD
:101E500001491820ABBEFEE72600020043088B4272
:101E60001AD3002203098B4279D3030A8B425ED333
:101E7000030B8B4242D3030C8B4227D30902FF2270
:101E800012BA030C8B4202D31212090203D0030BC5
:101E90008B4233D31AE0D3E0411A8041401C704793
:101EA00003460B4371D443088B42F5D30022030948
:101EB0008B4254D3030A8B4239D3030B8B421DD37D
:101EC000030C8B4202D394466EE0090AC30B8B428B
:101ED00001D3CB03C01A5241830B8B4201D38B0336
:101EE000C01A5241430B8B4201D34B03C01A5241DB
:101EF000030B8B4201D30B03C01A5241C30A8B421E
:101F000001D3CB02C01A5241830A8B4201D38B0208
:101F1000C01A5241430A8B4201D34B02C01A5241AC
:101F2000030A8B4201D30B02C01A5241CDD2C3091E
:101F30008B4201D3CB01C01A524183098B4201D39A
:101F40008B01C01A524143098B4201D34B01C01A85
:101F5000524103098B4201D30B01C01A5241C308FD
:101F60008B4201D3CB00C01A524183088B4201D36C
:101F70008B00C01A524143088B4201D34B00C01A58
:101F80005241411A524110007047CA0F00D04942D5
:101F9000031000D34042534000229C4603098B4269
:101FA0002DD3030A8B4212D38901FC2212BA030AF1
:101FB0008B420CD3890192118B4208D38901921173
:101FC0008B4204D3890137D0921100E08909C309FB
:101FD0008B4201D3CB01C01A524183098B4201D3FA
:101FE0008B01C01A524143098B4201D34B01C01AE5
:101FF000524103098B4201D30B01C01A5241C3085D
:102000008B4201D3CB00C01A524183088B4201D3CB
:102010008B00C01A5241D9D243088B4201D34B00E6
:10202000C01A5241411A00D201465241104663463D
:102030005B1000D34042704763465B1000D34042C0
:1020400001B50021004201D0C9430846C046C04640
:1020500002BD10B500F01AF8EFF30080800001D542
:10206000012010BD002010BD10B500F041F8EFF3C5
:102070000080800001D4012010BD002010BD303848
:102080000A2801D2012070470020704770B5012551
:102090002D050C001C4310D4EC4206D4AC420AD4EB
:1020A000994200D070BD904270BDE94217D4EB4216
:1020B00015D4994270BD894270BDEC4206D5AC4240
:1020C000F9D58B4200D070BD824270BD6D004C00CE
:1020D000EC4204D25C00EC4201D28B4270BD034C56
:1020E00030B4FFF7E9FD30BC70BD00BF1900130428
:1020F00070B501252D050C001C4310D4EC4206D40C
:10210000AC420AD4994200D070BD904270BDE94201
:1021100017D4EB4215D4994270BD894270BDEC4290
:1021200006D5AC42F9D58B4200D070BD824270BD5D
:102130006D004C00EC4204D25C00EC4201D28B42B8
:1021400070BD034C30B4FFF7B7FD30BC70BD00BFAD
:102150001900160470B5420064414B005C41120E38
:1021600039D01B0E38D0FF2A3CD0FF2B3AD0D218E2
:102170007F3A40024902400A490A4518ED0106002B
:102180004E43000A090A48430104731A4019190C06
:102190004318990F04D05B08012149075B1A521CB0
:1021A000D80904D3401CF50301D19D0607D0FF2AAE
:1021B00008D2D50506D0E4072043401970BD01259B
:1021C000A843F4E7002A01DCE00770BD2402FF20E9
:1021D0002043C00570BD1B0EFF2A03D0FF2B01D08A
:1021E000E00770BDFF2636064500B54206D84D0013
:1021F000B54203D8D218FF2A00D0E7E7004870BDE7
:102200000000C07F04000008000000000000000281
:1022100000010000102E2D2D2D002D2E2D2D002D16
:102220002D2E2D002D2E2E2D002E2E2E2D002E2D5E
:102230002D2E002D2E2D2E002E2E2D2E002D2D2E4E
:102240002E002E2D2E2E002D2E2E2E002E2E2E2E3A
:10225000000000007822000000FCFF1FB800000012
:102260000401000030230000B8FCFF1FD003000071
:10227000200100000000000000000E010F110F01FE
:1022800002040E1010110E0000000E111F100E029D
:102290000C0406040C040E0002041619111111009E
:1022A00002040E1111110E0002040E100E011E0088
:1022B00004001F0204081F0000008002713D3A3A2A
:1022C000010000002B220000472200003322000002
:1022D000432200004F220000382200002F2200007D
:1022E0004C2200004E220000152200002022000097
:1022F000422200001C2200003A22000016220000A8
:102300002E2200001F220000392200004D22000072
:102310002C2200002A220000292200001B2200009B
:10232000242200001A2200003D22000000000000CC
:04000005000000C136
:00000001FF
